{
  "contractName": "Invoices",
  "abi": [
    {
      "constant": false,
      "inputs": [
        {
          "name": "_from",
          "type": "address"
        },
        {
          "name": "_to",
          "type": "address"
        },
        {
          "name": "_invoiceNumber",
          "type": "string"
        }
      ],
      "name": "addInvoice",
      "outputs": [],
      "payable": false,
      "stateMutability": "nonpayable",
      "type": "function",
      "signature": "0x58f78622"
    },
    {
      "constant": true,
      "inputs": [
        {
          "name": "_from",
          "type": "address"
        },
        {
          "name": "_invoiceNumber",
          "type": "string"
        }
      ],
      "name": "checkInvoice",
      "outputs": [
        {
          "name": "ok",
          "type": "bool"
        }
      ],
      "payable": false,
      "stateMutability": "view",
      "type": "function",
      "signature": "0xd771b6cc"
    }
  ],
  "bytecode": "0x608060405234801561001057600080fd5b506108aa806100206000396000f3fe60806040526004361061004c576000357c0100000000000000000000000000000000000000000000000000000000900463ffffffff16806358f7862214610051578063d771b6cc14610159575b600080fd5b34801561005d57600080fd5b506101576004803603606081101561007457600080fd5b81019080803573ffffffffffffffffffffffffffffffffffffffff169060200190929190803573ffffffffffffffffffffffffffffffffffffffff169060200190929190803590602001906401000000008111156100d157600080fd5b8201836020820111156100e357600080fd5b8035906020019184600183028401116401000000008311171561010557600080fd5b91908080601f016020809104026020016040519081016040528093929190818152602001838380828437600081840152601f19601f820116905080830192505050505050509192919290505050610259565b005b34801561016557600080fd5b5061023f6004803603604081101561017c57600080fd5b81019080803573ffffffffffffffffffffffffffffffffffffffff169060200190929190803590602001906401000000008111156101b957600080fd5b8201836020820111156101cb57600080fd5b803590602001918460018302840111640100000000831117156101ed57600080fd5b91908080601f016020809104026020016040519081016040528093929190818152602001838380828437600081840152601f19601f820116905080830192505050505050509192919290505050610432565b604051808215151515815260200191505060405180910390f35b8273ffffffffffffffffffffffffffffffffffffffff163373ffffffffffffffffffffffffffffffffffffffff1614151561029357600080fd5b61029b61078b565b83816000019073ffffffffffffffffffffffffffffffffffffffff16908173ffffffffffffffffffffffffffffffffffffffff168152505082816020019073ffffffffffffffffffffffffffffffffffffffff16908173ffffffffffffffffffffffffffffffffffffffff16815250508181604001819052506000808573ffffffffffffffffffffffffffffffffffffffff1673ffffffffffffffffffffffffffffffffffffffff168152602001908152602001600020819080600181540180825580915050906001820390600052602060002090600302016000909192909190915060008201518160000160006101000a81548173ffffffffffffffffffffffffffffffffffffffff021916908373ffffffffffffffffffffffffffffffffffffffff16021790555060208201518160010160006101000a81548173ffffffffffffffffffffffffffffffffffffffff021916908373ffffffffffffffffffffffffffffffffffffffff16021790555060408201518160020190805190602001906104289291906107d9565b5050505050505050565b60008273ffffffffffffffffffffffffffffffffffffffff163373ffffffffffffffffffffffffffffffffffffffff1614151561046e57600080fd5b60606000808573ffffffffffffffffffffffffffffffffffffffff1673ffffffffffffffffffffffffffffffffffffffff168152602001908152602001600020805480602002602001604051908101604052809291908181526020016000905b8282101561064f5783829060005260206000209060030201606060405190810160405290816000820160009054906101000a900473ffffffffffffffffffffffffffffffffffffffff1673ffffffffffffffffffffffffffffffffffffffff1673ffffffffffffffffffffffffffffffffffffffff1681526020016001820160009054906101000a900473ffffffffffffffffffffffffffffffffffffffff1673ffffffffffffffffffffffffffffffffffffffff1673ffffffffffffffffffffffffffffffffffffffff168152602001600282018054600181600116156101000203166002900480601f0160208091040260200160405190810160405280929190818152602001828054600181600116156101000203166002900480156106375780601f1061060c57610100808354040283529160200191610637565b820191906000526020600020905b81548152906001019060200180831161061a57829003601f168201915b505050505081525050815260200190600101906104ce565b5050505090506001915060008090505b815181101561078357836040516020018082805190602001908083835b6020831015156106a1578051825260208201915060208101905060208303925061067c565b6001836020036101000a0380198251168184511680821785525050505050509050019150506040516020818303038152906040528051906020012082828151811015156106ea57fe5b90602001906020020151604001516040516020018082805190602001908083835b602083101515610730578051825260208201915060208101905060208303925061070b565b6001836020036101000a03801982511681845116808217855250505050505090500191505060405160208183030381529060405280519060200120141561077657600092505b808060010191505061065f565b505092915050565b606060405190810160405280600073ffffffffffffffffffffffffffffffffffffffff168152602001600073ffffffffffffffffffffffffffffffffffffffff168152602001606081525090565b828054600181600116156101000203166002900490600052602060002090601f016020900481019282601f1061081a57805160ff1916838001178555610848565b82800160010185558215610848579182015b8281111561084757825182559160200191906001019061082c565b5b5090506108559190610859565b5090565b61087b91905b8082111561087757600081600090555060010161085f565b5090565b9056fea165627a7a72305820224daab0ecf1963ec695a6bd4017e96f56d2b0e92f14055c5803c342045a68130029",
  "source": "pragma solidity >=0.4.22 <0.9.0;\r\ncontract  Invoices {\r\n\r\n\t//Global base parameters\r\n\r\n\tstruct Invoice{\r\n\t\taddress from;\r\n\t\taddress to;\r\n\t\tstring invoiceNumber;\r\n\t}\r\n\r\n\tmapping(address=>Invoice[]) invoices;\r\n\r\n\r\n\t\r\n\t//functions\r\n\t//making sure that account making a request can only get data related to that account\r\n\r\n\tfunction addInvoice(address _from, address _to, string memory _invoiceNumber) public {\r\n\t\t//checking if the account that started the transaction is same as the account which is creating the invoice\r\n\t\tif(msg.sender != _from) revert();\r\n\t\tInvoice memory inv;\r\n\t\tinv.from = _from;\r\n\t\tinv.to = _to;\r\n\t\tinv.invoiceNumber = _invoiceNumber;\r\n\t\tinvoices[_from].push(inv);\r\n\t}\r\n\r\n\r\n\t//check if the person submitting the challan has already submitted an invoice with the same number\r\n\tfunction checkInvoice(address _from, string memory _invoiceNumber) public view returns (bool ok){\r\n\t\trequire(msg.sender==_from);\r\n\t\tInvoice[] memory invs = invoices[_from];\r\n\t\tok = true;\r\n\t\tfor(uint i = 0; i<invs.length; i++){\r\n\t\t\tif (keccak256(abi.encodePacked(invs[i].invoiceNumber)) == keccak256(abi.encodePacked(_invoiceNumber))) {\r\n\t\t\t\tok = false;\r\n\t\t\t}\t\t\r\n\t\t}\r\n\t}\r\n\r\n}",
  "sourcePath": "C:/Users/yashs/Desktop/Computer Science/Web Development/Projects/Hackethons/EPIC TVS/EZ-Discounting/client/contracts/Invoices.sol",
  "compiler": {
    "name": "solc",
    "version": "0.5.0+commit.1d4f565a.Emscripten.clang"
  },
  "schemaVersion": "3.0.1",
  "updatedAt": "2021-11-17T01:09:05.584Z",
  "devdoc": {
    "methods": {}
  },
  "userdoc": {
    "methods": {}
  }
}