{
  "contractName": "Invoices",
  "abi": [
    {
      "constant": true,
      "inputs": [
        {
          "name": "",
          "type": "address"
        },
        {
          "name": "",
          "type": "uint256"
        }
      ],
      "name": "invoices",
      "outputs": [
        {
          "name": "from",
          "type": "address"
        },
        {
          "name": "to",
          "type": "address"
        },
        {
          "name": "invoiceNumber",
          "type": "string"
        }
      ],
      "payable": false,
      "stateMutability": "view",
      "type": "function",
      "signature": "0x0dad62fa"
    },
    {
      "constant": true,
      "inputs": [],
      "name": "invoicesCount",
      "outputs": [
        {
          "name": "",
          "type": "uint256"
        }
      ],
      "payable": false,
      "stateMutability": "view",
      "type": "function",
      "signature": "0xc3dbfbfc"
    },
    {
      "constant": false,
      "inputs": [
        {
          "name": "_from",
          "type": "address"
        },
        {
          "name": "_to",
          "type": "address"
        },
        {
          "name": "_invoiceNumber",
          "type": "string"
        }
      ],
      "name": "addInvoice",
      "outputs": [],
      "payable": false,
      "stateMutability": "nonpayable",
      "type": "function",
      "signature": "0x58f78622"
    },
    {
      "constant": true,
      "inputs": [
        {
          "name": "_from",
          "type": "address"
        },
        {
          "name": "_invoiceNumber",
          "type": "string"
        }
      ],
      "name": "checkInvoice",
      "outputs": [
        {
          "name": "ok",
          "type": "bool"
        }
      ],
      "payable": false,
      "stateMutability": "view",
      "type": "function",
      "signature": "0xd771b6cc"
    }
  ],
  "bytecode": "0x60806040526000805534801561001457600080fd5b50610ad7806100246000396000f3fe608060405260043610610062576000357c0100000000000000000000000000000000000000000000000000000000900463ffffffff1680630dad62fa1461006757806358f78622146101a1578063c3dbfbfc146102a9578063d771b6cc146102d4575b600080fd5b34801561007357600080fd5b506100c06004803603604081101561008a57600080fd5b81019080803573ffffffffffffffffffffffffffffffffffffffff169060200190929190803590602001909291905050506103d4565b604051808473ffffffffffffffffffffffffffffffffffffffff1673ffffffffffffffffffffffffffffffffffffffff1681526020018373ffffffffffffffffffffffffffffffffffffffff1673ffffffffffffffffffffffffffffffffffffffff16815260200180602001828103825283818151815260200191508051906020019080838360005b83811015610164578082015181840152602081019050610149565b50505050905090810190601f1680156101915780820380516001836020036101000a031916815260200191505b5094505050505060405180910390f35b3480156101ad57600080fd5b506102a7600480360360608110156101c457600080fd5b81019080803573ffffffffffffffffffffffffffffffffffffffff169060200190929190803573ffffffffffffffffffffffffffffffffffffffff1690602001909291908035906020019064010000000081111561022157600080fd5b82018360208201111561023357600080fd5b8035906020019184600183028401116401000000008311171561025557600080fd5b91908080601f016020809104026020016040519081016040528093929190818152602001838380828437600081840152601f19601f8201169050808301925050505050505091929192905050506104f2565b005b3480156102b557600080fd5b506102be610692565b6040518082815260200191505060405180910390f35b3480156102e057600080fd5b506103ba600480360360408110156102f757600080fd5b81019080803573ffffffffffffffffffffffffffffffffffffffff1690602001909291908035906020019064010000000081111561033457600080fd5b82018360208201111561034657600080fd5b8035906020019184600183028401116401000000008311171561036857600080fd5b91908080601f016020809104026020016040519081016040528093929190818152602001838380828437600081840152601f19601f820116905080830192505050505050509192919290505050610698565b604051808215151515815260200191505060405180910390f35b6001602052816000526040600020818154811015156103ef57fe5b9060005260206000209060030201600091509150508060000160009054906101000a900473ffffffffffffffffffffffffffffffffffffffff16908060010160009054906101000a900473ffffffffffffffffffffffffffffffffffffffff1690806002018054600181600116156101000203166002900480601f0160208091040260200160405190810160405280929190818152602001828054600181600116156101000203166002900480156104e85780601f106104bd576101008083540402835291602001916104e8565b820191906000526020600020905b8154815290600101906020018083116104cb57829003601f168201915b5050505050905083565b6104fa6109b8565b83816000019073ffffffffffffffffffffffffffffffffffffffff16908173ffffffffffffffffffffffffffffffffffffffff168152505082816020019073ffffffffffffffffffffffffffffffffffffffff16908173ffffffffffffffffffffffffffffffffffffffff1681525050818160400181905250600160008573ffffffffffffffffffffffffffffffffffffffff1673ffffffffffffffffffffffffffffffffffffffff168152602001908152602001600020819080600181540180825580915050906001820390600052602060002090600302016000909192909190915060008201518160000160006101000a81548173ffffffffffffffffffffffffffffffffffffffff021916908373ffffffffffffffffffffffffffffffffffffffff16021790555060208201518160010160006101000a81548173ffffffffffffffffffffffffffffffffffffffff021916908373ffffffffffffffffffffffffffffffffffffffff1602179055506040820151816002019080519060200190610688929190610a06565b5050505050505050565b60005481565b60006060600160008573ffffffffffffffffffffffffffffffffffffffff1673ffffffffffffffffffffffffffffffffffffffff168152602001908152602001600020805480602002602001604051908101604052809291908181526020016000905b8282101561087c5783829060005260206000209060030201606060405190810160405290816000820160009054906101000a900473ffffffffffffffffffffffffffffffffffffffff1673ffffffffffffffffffffffffffffffffffffffff1673ffffffffffffffffffffffffffffffffffffffff1681526020016001820160009054906101000a900473ffffffffffffffffffffffffffffffffffffffff1673ffffffffffffffffffffffffffffffffffffffff1673ffffffffffffffffffffffffffffffffffffffff168152602001600282018054600181600116156101000203166002900480601f0160208091040260200160405190810160405280929190818152602001828054600181600116156101000203166002900480156108645780601f1061083957610100808354040283529160200191610864565b820191906000526020600020905b81548152906001019060200180831161084757829003601f168201915b505050505081525050815260200190600101906106fb565b5050505090506001915060008090505b81518110156109b057836040516020018082805190602001908083835b6020831015156108ce57805182526020820191506020810190506020830392506108a9565b6001836020036101000a03801982511681845116808217855250505050505090500191505060405160208183030381529060405280519060200120828281518110151561091757fe5b90602001906020020151604001516040516020018082805190602001908083835b60208310151561095d5780518252602082019150602081019050602083039250610938565b6001836020036101000a0380198251168184511680821785525050505050509050019150506040516020818303038152906040528051906020012014156109a357600092505b808060010191505061088c565b505092915050565b606060405190810160405280600073ffffffffffffffffffffffffffffffffffffffff168152602001600073ffffffffffffffffffffffffffffffffffffffff168152602001606081525090565b828054600181600116156101000203166002900490600052602060002090601f016020900481019282601f10610a4757805160ff1916838001178555610a75565b82800160010185558215610a75579182015b82811115610a74578251825591602001919060010190610a59565b5b509050610a829190610a86565b5090565b610aa891905b80821115610aa4576000816000905550600101610a8c565b5090565b9056fea165627a7a72305820848cd5cc825799ec4a88f7681347ad9db5c3a2f82404185d3174b99e2159d7ab0029",
  "source": "pragma solidity >=0.4.22 <0.9.0;\r\ncontract  Invoices {\r\n\r\n\t//Global base parameters\r\n\r\n\tuint public invoicesCount = 0;\r\n\r\n\tstruct Invoice{\r\n\t\taddress from;\r\n\t\taddress to;\r\n\t\tstring invoiceNumber;\r\n\t}\r\n\r\n\tmapping(address=>Invoice[]) public invoices;\r\n\r\n\r\n\t//Constructor\r\n\r\n\t//functions\r\n\tfunction addInvoice(address _from, address _to, string memory _invoiceNumber) public {\r\n\t\t//might check that msg.sender/tx.origin == _from || _to\r\n\t\tInvoice memory inv;\r\n\t\tinv.from = _from;\r\n\t\tinv.to = _to;\r\n\t\tinv.invoiceNumber = _invoiceNumber;\r\n\t\tinvoices[_from].push(inv);\r\n\t}\r\n\t//check if the person submitting the challan has already submitted an invoice with the same number\r\n\tfunction checkInvoice(address _from, string memory _invoiceNumber) public view returns (bool ok){\r\n\t\tInvoice[] memory invs = invoices[_from];\r\n\t\tok = true;\r\n\t\tfor(uint i = 0; i<invs.length; i++){\r\n\t\t\tif (keccak256(abi.encodePacked(invs[i].invoiceNumber)) == keccak256(abi.encodePacked(_invoiceNumber))) {\r\n\t\t\t\tok = false;\r\n\t\t\t}\t\t\r\n\t\t}\r\n\t}\r\n\r\n}",
  "sourcePath": "C:/Users/yashs/Desktop/Computer Science/Web Development/Projects/Hackethons/EPIC TVS/EZ-Discounting/client/contracts/Invoices.sol",
  "compiler": {
    "name": "solc",
    "version": "0.5.0+commit.1d4f565a.Emscripten.clang"
  },
  "schemaVersion": "3.0.1",
  "updatedAt": "2021-11-16T13:11:54.778Z",
  "devdoc": {
    "methods": {}
  },
  "userdoc": {
    "methods": {}
  }
}